{
  "_format": "hh-sol-artifact-1",
  "contractName": "NFT",
  "sourceName": "contracts/NFT.sol",
  "abi": [
    {
      "inputs": [
        {
          "internalType": "string",
          "name": "_name",
          "type": "string"
        },
        {
          "internalType": "string",
          "name": "_symbol",
          "type": "string"
        },
        {
          "internalType": "uint256",
          "name": "_cost",
          "type": "uint256"
        }
      ],
      "stateMutability": "nonpayable",
      "type": "constructor"
    },
    {
      "anonymous": false,
      "inputs": [
        {
          "indexed": true,
          "internalType": "address",
          "name": "owner",
          "type": "address"
        },
        {
          "indexed": true,
          "internalType": "address",
          "name": "approved",
          "type": "address"
        },
        {
          "indexed": true,
          "internalType": "uint256",
          "name": "tokenId",
          "type": "uint256"
        }
      ],
      "name": "Approval",
      "type": "event"
    },
    {
      "anonymous": false,
      "inputs": [
        {
          "indexed": true,
          "internalType": "address",
          "name": "owner",
          "type": "address"
        },
        {
          "indexed": true,
          "internalType": "address",
          "name": "operator",
          "type": "address"
        },
        {
          "indexed": false,
          "internalType": "bool",
          "name": "approved",
          "type": "bool"
        }
      ],
      "name": "ApprovalForAll",
      "type": "event"
    },
    {
      "anonymous": false,
      "inputs": [
        {
          "indexed": true,
          "internalType": "address",
          "name": "from",
          "type": "address"
        },
        {
          "indexed": true,
          "internalType": "address",
          "name": "to",
          "type": "address"
        },
        {
          "indexed": true,
          "internalType": "uint256",
          "name": "tokenId",
          "type": "uint256"
        }
      ],
      "name": "Transfer",
      "type": "event"
    },
    {
      "inputs": [
        {
          "internalType": "address",
          "name": "to",
          "type": "address"
        },
        {
          "internalType": "uint256",
          "name": "tokenId",
          "type": "uint256"
        }
      ],
      "name": "approve",
      "outputs": [],
      "stateMutability": "nonpayable",
      "type": "function"
    },
    {
      "inputs": [
        {
          "internalType": "address",
          "name": "owner",
          "type": "address"
        }
      ],
      "name": "balanceOf",
      "outputs": [
        {
          "internalType": "uint256",
          "name": "",
          "type": "uint256"
        }
      ],
      "stateMutability": "view",
      "type": "function"
    },
    {
      "inputs": [],
      "name": "cost",
      "outputs": [
        {
          "internalType": "uint256",
          "name": "",
          "type": "uint256"
        }
      ],
      "stateMutability": "view",
      "type": "function"
    },
    {
      "inputs": [
        {
          "internalType": "uint256",
          "name": "tokenId",
          "type": "uint256"
        }
      ],
      "name": "getApproved",
      "outputs": [
        {
          "internalType": "address",
          "name": "",
          "type": "address"
        }
      ],
      "stateMutability": "view",
      "type": "function"
    },
    {
      "inputs": [
        {
          "internalType": "address",
          "name": "owner",
          "type": "address"
        },
        {
          "internalType": "address",
          "name": "operator",
          "type": "address"
        }
      ],
      "name": "isApprovedForAll",
      "outputs": [
        {
          "internalType": "bool",
          "name": "",
          "type": "bool"
        }
      ],
      "stateMutability": "view",
      "type": "function"
    },
    {
      "inputs": [
        {
          "internalType": "string",
          "name": "tokenURI",
          "type": "string"
        }
      ],
      "name": "mint",
      "outputs": [],
      "stateMutability": "payable",
      "type": "function"
    },
    {
      "inputs": [],
      "name": "name",
      "outputs": [
        {
          "internalType": "string",
          "name": "",
          "type": "string"
        }
      ],
      "stateMutability": "view",
      "type": "function"
    },
    {
      "inputs": [],
      "name": "owner",
      "outputs": [
        {
          "internalType": "address",
          "name": "",
          "type": "address"
        }
      ],
      "stateMutability": "view",
      "type": "function"
    },
    {
      "inputs": [
        {
          "internalType": "uint256",
          "name": "tokenId",
          "type": "uint256"
        }
      ],
      "name": "ownerOf",
      "outputs": [
        {
          "internalType": "address",
          "name": "",
          "type": "address"
        }
      ],
      "stateMutability": "view",
      "type": "function"
    },
    {
      "inputs": [
        {
          "internalType": "address",
          "name": "from",
          "type": "address"
        },
        {
          "internalType": "address",
          "name": "to",
          "type": "address"
        },
        {
          "internalType": "uint256",
          "name": "tokenId",
          "type": "uint256"
        }
      ],
      "name": "safeTransferFrom",
      "outputs": [],
      "stateMutability": "nonpayable",
      "type": "function"
    },
    {
      "inputs": [
        {
          "internalType": "address",
          "name": "from",
          "type": "address"
        },
        {
          "internalType": "address",
          "name": "to",
          "type": "address"
        },
        {
          "internalType": "uint256",
          "name": "tokenId",
          "type": "uint256"
        },
        {
          "internalType": "bytes",
          "name": "data",
          "type": "bytes"
        }
      ],
      "name": "safeTransferFrom",
      "outputs": [],
      "stateMutability": "nonpayable",
      "type": "function"
    },
    {
      "inputs": [
        {
          "internalType": "address",
          "name": "operator",
          "type": "address"
        },
        {
          "internalType": "bool",
          "name": "approved",
          "type": "bool"
        }
      ],
      "name": "setApprovalForAll",
      "outputs": [],
      "stateMutability": "nonpayable",
      "type": "function"
    },
    {
      "inputs": [
        {
          "internalType": "bytes4",
          "name": "interfaceId",
          "type": "bytes4"
        }
      ],
      "name": "supportsInterface",
      "outputs": [
        {
          "internalType": "bool",
          "name": "",
          "type": "bool"
        }
      ],
      "stateMutability": "view",
      "type": "function"
    },
    {
      "inputs": [],
      "name": "symbol",
      "outputs": [
        {
          "internalType": "string",
          "name": "",
          "type": "string"
        }
      ],
      "stateMutability": "view",
      "type": "function"
    },
    {
      "inputs": [
        {
          "internalType": "uint256",
          "name": "tokenId",
          "type": "uint256"
        }
      ],
      "name": "tokenURI",
      "outputs": [
        {
          "internalType": "string",
          "name": "",
          "type": "string"
        }
      ],
      "stateMutability": "view",
      "type": "function"
    },
    {
      "inputs": [],
      "name": "totalSupply",
      "outputs": [
        {
          "internalType": "uint256",
          "name": "",
          "type": "uint256"
        }
      ],
      "stateMutability": "view",
      "type": "function"
    },
    {
      "inputs": [
        {
          "internalType": "address",
          "name": "from",
          "type": "address"
        },
        {
          "internalType": "address",
          "name": "to",
          "type": "address"
        },
        {
          "internalType": "uint256",
          "name": "tokenId",
          "type": "uint256"
        }
      ],
      "name": "transferFrom",
      "outputs": [],
      "stateMutability": "nonpayable",
      "type": "function"
    },
    {
      "inputs": [],
      "name": "withdraw",
      "outputs": [],
      "stateMutability": "nonpayable",
      "type": "function"
    }
  ],
  "bytecode": "0x60806040523480156200001157600080fd5b50604051620034943803806200349483398181016040528101906200003791906200027e565b828281600090816200004a919062000559565b5080600190816200005c919062000559565b50505033600860006101000a81548173ffffffffffffffffffffffffffffffffffffffff021916908373ffffffffffffffffffffffffffffffffffffffff1602179055508060098190555050505062000640565b6000604051905090565b600080fd5b600080fd5b600080fd5b600080fd5b6000601f19601f8301169050919050565b7f4e487b7100000000000000000000000000000000000000000000000000000000600052604160045260246000fd5b6200011982620000ce565b810181811067ffffffffffffffff821117156200013b576200013a620000df565b5b80604052505050565b600062000150620000b0565b90506200015e82826200010e565b919050565b600067ffffffffffffffff821115620001815762000180620000df565b5b6200018c82620000ce565b9050602081019050919050565b60005b83811015620001b95780820151818401526020810190506200019c565b60008484015250505050565b6000620001dc620001d68462000163565b62000144565b905082815260208101848484011115620001fb57620001fa620000c9565b5b6200020884828562000199565b509392505050565b600082601f830112620002285762000227620000c4565b5b81516200023a848260208601620001c5565b91505092915050565b6000819050919050565b620002588162000243565b81146200026457600080fd5b50565b60008151905062000278816200024d565b92915050565b6000806000606084860312156200029a5762000299620000ba565b5b600084015167ffffffffffffffff811115620002bb57620002ba620000bf565b5b620002c98682870162000210565b935050602084015167ffffffffffffffff811115620002ed57620002ec620000bf565b5b620002fb8682870162000210565b92505060406200030e8682870162000267565b9150509250925092565b600081519050919050565b7f4e487b7100000000000000000000000000000000000000000000000000000000600052602260045260246000fd5b600060028204905060018216806200036b57607f821691505b60208210810362000381576200038062000323565b5b50919050565b60008190508160005260206000209050919050565b60006020601f8301049050919050565b600082821b905092915050565b600060088302620003eb7fffffffffffffffffffffffffffffffffffffffffffffffffffffffffffffffff82620003ac565b620003f78683620003ac565b95508019841693508086168417925050509392505050565b6000819050919050565b60006200043a620004346200042e8462000243565b6200040f565b62000243565b9050919050565b6000819050919050565b620004568362000419565b6200046e620004658262000441565b848454620003b9565b825550505050565b600090565b6200048562000476565b620004928184846200044b565b505050565b5b81811015620004ba57620004ae6000826200047b565b60018101905062000498565b5050565b601f8211156200050957620004d38162000387565b620004de846200039c565b81016020851015620004ee578190505b62000506620004fd856200039c565b83018262000497565b50505b505050565b600082821c905092915050565b60006200052e600019846008026200050e565b1980831691505092915050565b60006200054983836200051b565b9150826002028217905092915050565b620005648262000318565b67ffffffffffffffff81111562000580576200057f620000df565b5b6200058c825462000352565b62000599828285620004be565b600060209050601f831160018114620005d15760008415620005bc578287015190505b620005c885826200053b565b86555062000638565b601f198416620005e18662000387565b60005b828110156200060b57848901518255600182019150602085019450602081019050620005e4565b868310156200062b578489015162000627601f8916826200051b565b8355505b6001600288020188555050505b505050505050565b612e4480620006506000396000f3fe6080604052600436106101095760003560e01c80636352211e11610095578063a22cb46511610064578063a22cb4651461036b578063b88d4fde14610394578063c87b56dd146103bd578063d85d3d27146103fa578063e985e9c51461041657610109565b80636352211e1461029b57806370a08231146102d85780638da5cb5b1461031557806395d89b411461034057610109565b806313faede6116100dc57806313faede6146101dc57806318160ddd1461020757806323b872dd146102325780633ccfd60b1461025b57806342842e0e1461027257610109565b806301ffc9a71461010e57806306fdde031461014b578063081812fc14610176578063095ea7b3146101b3575b600080fd5b34801561011a57600080fd5b5061013560048036038101906101309190611c28565b610453565b6040516101429190611c70565b60405180910390f35b34801561015757600080fd5b50610160610535565b60405161016d9190611d1b565b60405180910390f35b34801561018257600080fd5b5061019d60048036038101906101989190611d73565b6105c7565b6040516101aa9190611de1565b60405180910390f35b3480156101bf57600080fd5b506101da60048036038101906101d59190611e28565b61060d565b005b3480156101e857600080fd5b506101f1610724565b6040516101fe9190611e77565b60405180910390f35b34801561021357600080fd5b5061021c61072a565b6040516102299190611e77565b60405180910390f35b34801561023e57600080fd5b5061025960048036038101906102549190611e92565b61073b565b005b34801561026757600080fd5b5061027061079b565b005b34801561027e57600080fd5b5061029960048036038101906102949190611e92565b6108c6565b005b3480156102a757600080fd5b506102c260048036038101906102bd9190611d73565b6108e6565b6040516102cf9190611de1565b60405180910390f35b3480156102e457600080fd5b506102ff60048036038101906102fa9190611ee5565b61096c565b60405161030c9190611e77565b60405180910390f35b34801561032157600080fd5b5061032a610a23565b6040516103379190611de1565b60405180910390f35b34801561034c57600080fd5b50610355610a49565b6040516103629190611d1b565b60405180910390f35b34801561037757600080fd5b50610392600480360381019061038d9190611f3e565b610adb565b005b3480156103a057600080fd5b506103bb60048036038101906103b691906120b3565b610af1565b005b3480156103c957600080fd5b506103e460048036038101906103df9190611d73565b610b53565b6040516103f19190611d1b565b60405180910390f35b610414600480360381019061040f91906121d7565b610c65565b005b34801561042257600080fd5b5061043d60048036038101906104389190612220565b610cda565b60405161044a9190611c70565b60405180910390f35b60007f80ac58cd000000000000000000000000000000000000000000000000000000007bffffffffffffffffffffffffffffffffffffffffffffffffffffffff1916827bffffffffffffffffffffffffffffffffffffffffffffffffffffffff1916148061051e57507f5b5e139f000000000000000000000000000000000000000000000000000000007bffffffffffffffffffffffffffffffffffffffffffffffffffffffff1916827bffffffffffffffffffffffffffffffffffffffffffffffffffffffff1916145b8061052e575061052d82610d6e565b5b9050919050565b6060600080546105449061228f565b80601f01602080910402602001604051908101604052809291908181526020018280546105709061228f565b80156105bd5780601f10610592576101008083540402835291602001916105bd565b820191906000526020600020905b8154815290600101906020018083116105a057829003601f168201915b5050505050905090565b60006105d282610dd8565b6004600083815260200190815260200160002060009054906101000a900473ffffffffffffffffffffffffffffffffffffffff169050919050565b6000610618826108e6565b90508073ffffffffffffffffffffffffffffffffffffffff168373ffffffffffffffffffffffffffffffffffffffff1603610688576040517f08c379a000000000000000000000000000000000000000000000000000000000815260040161067f90612332565b60405180910390fd5b8073ffffffffffffffffffffffffffffffffffffffff166106a7610e23565b73ffffffffffffffffffffffffffffffffffffffff1614806106d657506106d5816106d0610e23565b610cda565b5b610715576040517f08c379a000000000000000000000000000000000000000000000000000000000815260040161070c906123c4565b60405180910390fd5b61071f8383610e2b565b505050565b60095481565b60006107366007610ee4565b905090565b61074c610746610e23565b82610ef2565b61078b576040517f08c379a000000000000000000000000000000000000000000000000000000000815260040161078290612456565b60405180910390fd5b610796838383610f87565b505050565b600860009054906101000a900473ffffffffffffffffffffffffffffffffffffffff1673ffffffffffffffffffffffffffffffffffffffff163373ffffffffffffffffffffffffffffffffffffffff161461082b576040517f08c379a0000000000000000000000000000000000000000000000000000000008152600401610822906124c2565b60405180910390fd5b6000600860009054906101000a900473ffffffffffffffffffffffffffffffffffffffff1673ffffffffffffffffffffffffffffffffffffffff164760405161087390612513565b60006040518083038185875af1925050503d80600081146108b0576040519150601f19603f3d011682016040523d82523d6000602084013e6108b5565b606091505b50509050806108c357600080fd5b50565b6108e183838360405180602001604052806000815250610af1565b505050565b6000806108f283611280565b9050600073ffffffffffffffffffffffffffffffffffffffff168173ffffffffffffffffffffffffffffffffffffffff1603610963576040517f08c379a000000000000000000000000000000000000000000000000000000000815260040161095a90612574565b60405180910390fd5b80915050919050565b60008073ffffffffffffffffffffffffffffffffffffffff168273ffffffffffffffffffffffffffffffffffffffff16036109dc576040517f08c379a00000000000000000000000000000000000000000000000000000000081526004016109d390612606565b60405180910390fd5b600360008373ffffffffffffffffffffffffffffffffffffffff1673ffffffffffffffffffffffffffffffffffffffff168152602001908152602001600020549050919050565b600860009054906101000a900473ffffffffffffffffffffffffffffffffffffffff1681565b606060018054610a589061228f565b80601f0160208091040260200160405190810160405280929190818152602001828054610a849061228f565b8015610ad15780601f10610aa657610100808354040283529160200191610ad1565b820191906000526020600020905b815481529060010190602001808311610ab457829003601f168201915b5050505050905090565b610aed610ae6610e23565b83836112bd565b5050565b610b02610afc610e23565b83610ef2565b610b41576040517f08c379a0000000000000000000000000000000000000000000000000000000008152600401610b3890612456565b60405180910390fd5b610b4d84848484611429565b50505050565b6060610b5e82610dd8565b6000600660008481526020019081526020016000208054610b7e9061228f565b80601f0160208091040260200160405190810160405280929190818152602001828054610baa9061228f565b8015610bf75780601f10610bcc57610100808354040283529160200191610bf7565b820191906000526020600020905b815481529060010190602001808311610bda57829003601f168201915b505050505090506000610c08611485565b90506000815103610c1d578192505050610c60565b600082511115610c52578082604051602001610c3a929190612662565b60405160208183030381529060405292505050610c60565b610c5b8461149c565b925050505b919050565b600954341015610caa576040517f08c379a0000000000000000000000000000000000000000000000000000000008152600401610ca1906126d2565b60405180910390fd5b610cb46007611504565b6000610cc06007610ee4565b9050610ccc338261151a565b610cd68183611737565b5050565b6000600560008473ffffffffffffffffffffffffffffffffffffffff1673ffffffffffffffffffffffffffffffffffffffff16815260200190815260200160002060008373ffffffffffffffffffffffffffffffffffffffff1673ffffffffffffffffffffffffffffffffffffffff16815260200190815260200160002060009054906101000a900460ff16905092915050565b60007f01ffc9a7000000000000000000000000000000000000000000000000000000007bffffffffffffffffffffffffffffffffffffffffffffffffffffffff1916827bffffffffffffffffffffffffffffffffffffffffffffffffffffffff1916149050919050565b610de1816117a4565b610e20576040517f08c379a0000000000000000000000000000000000000000000000000000000008152600401610e1790612574565b60405180910390fd5b50565b600033905090565b816004600083815260200190815260200160002060006101000a81548173ffffffffffffffffffffffffffffffffffffffff021916908373ffffffffffffffffffffffffffffffffffffffff160217905550808273ffffffffffffffffffffffffffffffffffffffff16610e9e836108e6565b73ffffffffffffffffffffffffffffffffffffffff167f8c5be1e5ebec7d5bd14f71427d1e84f3dd0314c0f7b2291e5b200ac8c7c3b92560405160405180910390a45050565b600081600001549050919050565b600080610efe836108e6565b90508073ffffffffffffffffffffffffffffffffffffffff168473ffffffffffffffffffffffffffffffffffffffff161480610f405750610f3f8185610cda565b5b80610f7e57508373ffffffffffffffffffffffffffffffffffffffff16610f66846105c7565b73ffffffffffffffffffffffffffffffffffffffff16145b91505092915050565b8273ffffffffffffffffffffffffffffffffffffffff16610fa7826108e6565b73ffffffffffffffffffffffffffffffffffffffff1614610ffd576040517f08c379a0000000000000000000000000000000000000000000000000000000008152600401610ff490612764565b60405180910390fd5b600073ffffffffffffffffffffffffffffffffffffffff168273ffffffffffffffffffffffffffffffffffffffff160361106c576040517f08c379a0000000000000000000000000000000000000000000000000000000008152600401611063906127f6565b60405180910390fd5b61107983838360016117e5565b8273ffffffffffffffffffffffffffffffffffffffff16611099826108e6565b73ffffffffffffffffffffffffffffffffffffffff16146110ef576040517f08c379a00000000000000000000000000000000000000000000000000000000081526004016110e690612764565b60405180910390fd5b6004600082815260200190815260200160002060006101000a81549073ffffffffffffffffffffffffffffffffffffffff02191690556001600360008573ffffffffffffffffffffffffffffffffffffffff1673ffffffffffffffffffffffffffffffffffffffff168152602001908152602001600020600082825403925050819055506001600360008473ffffffffffffffffffffffffffffffffffffffff1673ffffffffffffffffffffffffffffffffffffffff16815260200190815260200160002060008282540192505081905550816002600083815260200190815260200160002060006101000a81548173ffffffffffffffffffffffffffffffffffffffff021916908373ffffffffffffffffffffffffffffffffffffffff160217905550808273ffffffffffffffffffffffffffffffffffffffff168473ffffffffffffffffffffffffffffffffffffffff167fddf252ad1be2c89b69c2b068fc378daa952ba7f163c4a11628f55a4df523b3ef60405160405180910390a461127b83838360016117eb565b505050565b60006002600083815260200190815260200160002060009054906101000a900473ffffffffffffffffffffffffffffffffffffffff169050919050565b8173ffffffffffffffffffffffffffffffffffffffff168373ffffffffffffffffffffffffffffffffffffffff160361132b576040517f08c379a000000000000000000000000000000000000000000000000000000000815260040161132290612862565b60405180910390fd5b80600560008573ffffffffffffffffffffffffffffffffffffffff1673ffffffffffffffffffffffffffffffffffffffff16815260200190815260200160002060008473ffffffffffffffffffffffffffffffffffffffff1673ffffffffffffffffffffffffffffffffffffffff16815260200190815260200160002060006101000a81548160ff0219169083151502179055508173ffffffffffffffffffffffffffffffffffffffff168373ffffffffffffffffffffffffffffffffffffffff167f17307eab39ab6107e8899845ad3d59bd9653f200f220920489ca2b5937696c318360405161141c9190611c70565b60405180910390a3505050565b611434848484610f87565b611440848484846117f1565b61147f576040517f08c379a0000000000000000000000000000000000000000000000000000000008152600401611476906128f4565b60405180910390fd5b50505050565b606060405180602001604052806000815250905090565b60606114a782610dd8565b60006114b1611485565b905060008151116114d157604051806020016040528060008152506114fc565b806114db84611978565b6040516020016114ec929190612662565b6040516020818303038152906040525b915050919050565b6001816000016000828254019250508190555050565b600073ffffffffffffffffffffffffffffffffffffffff168273ffffffffffffffffffffffffffffffffffffffff1603611589576040517f08c379a000000000000000000000000000000000000000000000000000000000815260040161158090612960565b60405180910390fd5b611592816117a4565b156115d2576040517f08c379a00000000000000000000000000000000000000000000000000000000081526004016115c9906129cc565b60405180910390fd5b6115e06000838360016117e5565b6115e9816117a4565b15611629576040517f08c379a0000000000000000000000000000000000000000000000000000000008152600401611620906129cc565b60405180910390fd5b6001600360008473ffffffffffffffffffffffffffffffffffffffff1673ffffffffffffffffffffffffffffffffffffffff16815260200190815260200160002060008282540192505081905550816002600083815260200190815260200160002060006101000a81548173ffffffffffffffffffffffffffffffffffffffff021916908373ffffffffffffffffffffffffffffffffffffffff160217905550808273ffffffffffffffffffffffffffffffffffffffff16600073ffffffffffffffffffffffffffffffffffffffff167fddf252ad1be2c89b69c2b068fc378daa952ba7f163c4a11628f55a4df523b3ef60405160405180910390a46117336000838360016117eb565b5050565b611740826117a4565b61177f576040517f08c379a000000000000000000000000000000000000000000000000000000000815260040161177690612a5e565b60405180910390fd5b8060066000848152602001908152602001600020908161179f9190612c2a565b505050565b60008073ffffffffffffffffffffffffffffffffffffffff166117c683611280565b73ffffffffffffffffffffffffffffffffffffffff1614159050919050565b50505050565b50505050565b60006118128473ffffffffffffffffffffffffffffffffffffffff16611a46565b1561196b578373ffffffffffffffffffffffffffffffffffffffff1663150b7a0261183b610e23565b8786866040518563ffffffff1660e01b815260040161185d9493929190612d51565b6020604051808303816000875af192505050801561189957506040513d601f19601f820116820180604052508101906118969190612db2565b60015b61191b573d80600081146118c9576040519150601f19603f3d011682016040523d82523d6000602084013e6118ce565b606091505b506000815103611913576040517f08c379a000000000000000000000000000000000000000000000000000000000815260040161190a906128f4565b60405180910390fd5b805181602001fd5b63150b7a0260e01b7bffffffffffffffffffffffffffffffffffffffffffffffffffffffff1916817bffffffffffffffffffffffffffffffffffffffffffffffffffffffff191614915050611970565b600190505b949350505050565b60606000600161198784611a69565b01905060008167ffffffffffffffff8111156119a6576119a5611f88565b5b6040519080825280601f01601f1916602001820160405280156119d85781602001600182028036833780820191505090505b509050600082602001820190505b600115611a3b578080600190039150507f3031323334353637383961626364656600000000000000000000000000000000600a86061a8153600a8581611a2f57611a2e612ddf565b5b049450600085036119e6575b819350505050919050565b6000808273ffffffffffffffffffffffffffffffffffffffff163b119050919050565b600080600090507a184f03e93ff9f4daa797ed6e38ed64bf6a1f0100000000000000008310611ac7577a184f03e93ff9f4daa797ed6e38ed64bf6a1f0100000000000000008381611abd57611abc612ddf565b5b0492506040810190505b6d04ee2d6d415b85acef81000000008310611b04576d04ee2d6d415b85acef81000000008381611afa57611af9612ddf565b5b0492506020810190505b662386f26fc100008310611b3357662386f26fc100008381611b2957611b28612ddf565b5b0492506010810190505b6305f5e1008310611b5c576305f5e1008381611b5257611b51612ddf565b5b0492506008810190505b6127108310611b81576127108381611b7757611b76612ddf565b5b0492506004810190505b60648310611ba45760648381611b9a57611b99612ddf565b5b0492506002810190505b600a8310611bb3576001810190505b80915050919050565b6000604051905090565b600080fd5b600080fd5b60007fffffffff0000000000000000000000000000000000000000000000000000000082169050919050565b611c0581611bd0565b8114611c1057600080fd5b50565b600081359050611c2281611bfc565b92915050565b600060208284031215611c3e57611c3d611bc6565b5b6000611c4c84828501611c13565b91505092915050565b60008115159050919050565b611c6a81611c55565b82525050565b6000602082019050611c856000830184611c61565b92915050565b600081519050919050565b600082825260208201905092915050565b60005b83811015611cc5578082015181840152602081019050611caa565b60008484015250505050565b6000601f19601f8301169050919050565b6000611ced82611c8b565b611cf78185611c96565b9350611d07818560208601611ca7565b611d1081611cd1565b840191505092915050565b60006020820190508181036000830152611d358184611ce2565b905092915050565b6000819050919050565b611d5081611d3d565b8114611d5b57600080fd5b50565b600081359050611d6d81611d47565b92915050565b600060208284031215611d8957611d88611bc6565b5b6000611d9784828501611d5e565b91505092915050565b600073ffffffffffffffffffffffffffffffffffffffff82169050919050565b6000611dcb82611da0565b9050919050565b611ddb81611dc0565b82525050565b6000602082019050611df66000830184611dd2565b92915050565b611e0581611dc0565b8114611e1057600080fd5b50565b600081359050611e2281611dfc565b92915050565b60008060408385031215611e3f57611e3e611bc6565b5b6000611e4d85828601611e13565b9250506020611e5e85828601611d5e565b9150509250929050565b611e7181611d3d565b82525050565b6000602082019050611e8c6000830184611e68565b92915050565b600080600060608486031215611eab57611eaa611bc6565b5b6000611eb986828701611e13565b9350506020611eca86828701611e13565b9250506040611edb86828701611d5e565b9150509250925092565b600060208284031215611efb57611efa611bc6565b5b6000611f0984828501611e13565b91505092915050565b611f1b81611c55565b8114611f2657600080fd5b50565b600081359050611f3881611f12565b92915050565b60008060408385031215611f5557611f54611bc6565b5b6000611f6385828601611e13565b9250506020611f7485828601611f29565b9150509250929050565b600080fd5b600080fd5b7f4e487b7100000000000000000000000000000000000000000000000000000000600052604160045260246000fd5b611fc082611cd1565b810181811067ffffffffffffffff82111715611fdf57611fde611f88565b5b80604052505050565b6000611ff2611bbc565b9050611ffe8282611fb7565b919050565b600067ffffffffffffffff82111561201e5761201d611f88565b5b61202782611cd1565b9050602081019050919050565b82818337600083830152505050565b600061205661205184612003565b611fe8565b90508281526020810184848401111561207257612071611f83565b5b61207d848285612034565b509392505050565b600082601f83011261209a57612099611f7e565b5b81356120aa848260208601612043565b91505092915050565b600080600080608085870312156120cd576120cc611bc6565b5b60006120db87828801611e13565b94505060206120ec87828801611e13565b93505060406120fd87828801611d5e565b925050606085013567ffffffffffffffff81111561211e5761211d611bcb565b5b61212a87828801612085565b91505092959194509250565b600067ffffffffffffffff82111561215157612150611f88565b5b61215a82611cd1565b9050602081019050919050565b600061217a61217584612136565b611fe8565b90508281526020810184848401111561219657612195611f83565b5b6121a1848285612034565b509392505050565b600082601f8301126121be576121bd611f7e565b5b81356121ce848260208601612167565b91505092915050565b6000602082840312156121ed576121ec611bc6565b5b600082013567ffffffffffffffff81111561220b5761220a611bcb565b5b612217848285016121a9565b91505092915050565b6000806040838503121561223757612236611bc6565b5b600061224585828601611e13565b925050602061225685828601611e13565b9150509250929050565b7f4e487b7100000000000000000000000000000000000000000000000000000000600052602260045260246000fd5b600060028204905060018216806122a757607f821691505b6020821081036122ba576122b9612260565b5b50919050565b7f4552433732313a20617070726f76616c20746f2063757272656e74206f776e6560008201527f7200000000000000000000000000000000000000000000000000000000000000602082015250565b600061231c602183611c96565b9150612327826122c0565b604082019050919050565b6000602082019050818103600083015261234b8161230f565b9050919050565b7f4552433732313a20617070726f76652063616c6c6572206973206e6f7420746f60008201527f6b656e206f776e6572206f7220617070726f76656420666f7220616c6c000000602082015250565b60006123ae603d83611c96565b91506123b982612352565b604082019050919050565b600060208201905081810360008301526123dd816123a1565b9050919050565b7f4552433732313a2063616c6c6572206973206e6f7420746f6b656e206f776e6560008201527f72206f7220617070726f76656400000000000000000000000000000000000000602082015250565b6000612440602d83611c96565b915061244b826123e4565b604082019050919050565b6000602082019050818103600083015261246f81612433565b9050919050565b7f676574206f757474612027657265210000000000000000000000000000000000600082015250565b60006124ac600f83611c96565b91506124b782612476565b602082019050919050565b600060208201905081810360008301526124db8161249f565b9050919050565b600081905092915050565b50565b60006124fd6000836124e2565b9150612508826124ed565b600082019050919050565b600061251e826124f0565b9150819050919050565b7f4552433732313a20696e76616c696420746f6b656e2049440000000000000000600082015250565b600061255e601883611c96565b915061256982612528565b602082019050919050565b6000602082019050818103600083015261258d81612551565b9050919050565b7f4552433732313a2061646472657373207a65726f206973206e6f74206120766160008201527f6c6964206f776e65720000000000000000000000000000000000000000000000602082015250565b60006125f0602983611c96565b91506125fb82612594565b604082019050919050565b6000602082019050818103600083015261261f816125e3565b9050919050565b600081905092915050565b600061263c82611c8b565b6126468185612626565b9350612656818560208601611ca7565b80840191505092915050565b600061266e8285612631565b915061267a8284612631565b91508190509392505050565b7f6d696e7420636f7374206e6f74206d65742e0000000000000000000000000000600082015250565b60006126bc601283611c96565b91506126c782612686565b602082019050919050565b600060208201905081810360008301526126eb816126af565b9050919050565b7f4552433732313a207472616e736665722066726f6d20696e636f72726563742060008201527f6f776e6572000000000000000000000000000000000000000000000000000000602082015250565b600061274e602583611c96565b9150612759826126f2565b604082019050919050565b6000602082019050818103600083015261277d81612741565b9050919050565b7f4552433732313a207472616e7366657220746f20746865207a65726f2061646460008201527f7265737300000000000000000000000000000000000000000000000000000000602082015250565b60006127e0602483611c96565b91506127eb82612784565b604082019050919050565b6000602082019050818103600083015261280f816127d3565b9050919050565b7f4552433732313a20617070726f766520746f2063616c6c657200000000000000600082015250565b600061284c601983611c96565b915061285782612816565b602082019050919050565b6000602082019050818103600083015261287b8161283f565b9050919050565b7f4552433732313a207472616e7366657220746f206e6f6e20455243373231526560008201527f63656976657220696d706c656d656e7465720000000000000000000000000000602082015250565b60006128de603283611c96565b91506128e982612882565b604082019050919050565b6000602082019050818103600083015261290d816128d1565b9050919050565b7f4552433732313a206d696e7420746f20746865207a65726f2061646472657373600082015250565b600061294a602083611c96565b915061295582612914565b602082019050919050565b600060208201905081810360008301526129798161293d565b9050919050565b7f4552433732313a20746f6b656e20616c7265616479206d696e74656400000000600082015250565b60006129b6601c83611c96565b91506129c182612980565b602082019050919050565b600060208201905081810360008301526129e5816129a9565b9050919050565b7f45524337323155524953746f726167653a2055524920736574206f66206e6f6e60008201527f6578697374656e7420746f6b656e000000000000000000000000000000000000602082015250565b6000612a48602e83611c96565b9150612a53826129ec565b604082019050919050565b60006020820190508181036000830152612a7781612a3b565b9050919050565b60008190508160005260206000209050919050565b60006020601f8301049050919050565b600082821b905092915050565b600060088302612ae07fffffffffffffffffffffffffffffffffffffffffffffffffffffffffffffffff82612aa3565b612aea8683612aa3565b95508019841693508086168417925050509392505050565b6000819050919050565b6000612b27612b22612b1d84611d3d565b612b02565b611d3d565b9050919050565b6000819050919050565b612b4183612b0c565b612b55612b4d82612b2e565b848454612ab0565b825550505050565b600090565b612b6a612b5d565b612b75818484612b38565b505050565b5b81811015612b9957612b8e600082612b62565b600181019050612b7b565b5050565b601f821115612bde57612baf81612a7e565b612bb884612a93565b81016020851015612bc7578190505b612bdb612bd385612a93565b830182612b7a565b50505b505050565b600082821c905092915050565b6000612c0160001984600802612be3565b1980831691505092915050565b6000612c1a8383612bf0565b9150826002028217905092915050565b612c3382611c8b565b67ffffffffffffffff811115612c4c57612c4b611f88565b5b612c56825461228f565b612c61828285612b9d565b600060209050601f831160018114612c945760008415612c82578287015190505b612c8c8582612c0e565b865550612cf4565b601f198416612ca286612a7e565b60005b82811015612cca57848901518255600182019150602085019450602081019050612ca5565b86831015612ce75784890151612ce3601f891682612bf0565b8355505b6001600288020188555050505b505050505050565b600081519050919050565b600082825260208201905092915050565b6000612d2382612cfc565b612d2d8185612d07565b9350612d3d818560208601611ca7565b612d4681611cd1565b840191505092915050565b6000608082019050612d666000830187611dd2565b612d736020830186611dd2565b612d806040830185611e68565b8181036060830152612d928184612d18565b905095945050505050565b600081519050612dac81611bfc565b92915050565b600060208284031215612dc857612dc7611bc6565b5b6000612dd684828501612d9d565b91505092915050565b7f4e487b7100000000000000000000000000000000000000000000000000000000600052601260045260246000fdfea2646970667358221220d8b46f976e105f019bfcbb17a087ddf0757755120ea6e3fd9c341eea44d67d1e64736f6c63430008120033",
  "linkReferences": {},
  "deployedLinkReferences": {}
}